:020000040800F2
:10000000005000200115000855140008571400087E
:10001000591400085B1400085D140008000000007B
:100020000000000000000000000000005F14000855
:100030006114000800000000631400086514000843
:100040004915000849150008491500084915000818
:100050004915000849150008491500084915000808
:1000600049150008491500084915000849150008F8
:1000700049150008491500084915000849150008E8
:1000800049150008491500084915000849150008D8
:100090006D140008491500084915000849150008A5
:1000A00049150008491500084915000849150008B8
:1000B00049150008491500084915000849150008A8
:1000C0004915000849150008491500084915000898
:1000D0004915000849150008491500084915000888
:1000E00049150008491500084915000800000000DE
:1000F0000000000000000000000000000000000000
:0C01000000000000000000005FF808F1A3
:10010C0010B5054C237833B9044B13B10448AFF345
:10011C0000800123237010BD0C00002000000000A3
:10012C00A415000808B5034B1BB103490348AFF3F2
:10013C00008008BD0000000010000020A41500087D
:10014C0010B504460E4B18784FF47A73B3FBF0F3EA
:10015C000C4A1068B0FBF3F000F01EFC68B90F2CD1
:10016C0001D9012010BD002221464FF0FF3000F0D4
:10017C00D7FB054B1C60002010BD012010BD00BF3B
:10018C0000000020080000200400002008B5074AE9
:10019C00136843F010031360032000F0AFFB002042
:1001AC00FFF7CEFF01F0E0F8002008BD0020024070
:1001BC00034A1168034B1B780B441360704700BF54
:1001CC002800002000000020014B1868704700BF79
:1001DC0028000020002800F08A8038B5044690F8EA
:1001EC002030D3B12268136823F002031360FFF7A9
:1001FC00EBFF054623685A6812F0020F10D0FFF788
:10020C00E3FF401B0A28F5D9636A43F400336362A9
:10021C00052384F82030012038BD01F0C7F8E1E750
:10022C001A6842F001021A60FFF7CEFF05462368F8
:10023C005A6812F0010F0DD1FFF7C6FF401B0A28B8
:10024C00F5D9636A43F400336362052384F82030E4
:10025C00012038BD227E012A1A680CBF42F08002B0
:10026C0022F080021A60637E012B226813680CBF97
:10027C0043F0400323F040031360A37E012B22685C
:10028C0013680CBF43F0200323F020031360E37EBC
:10029C00012B226813680CBF23F0100343F01003EA
:1002AC001360237F012B226813680CBF43F00803F3
:1002BC0023F008031360637F012B226813680CBFC3
:1002CC0043F0040323F0040313602168A368E2687D
:1002DC00134322691343626913436268013A13435F
:1002EC00CB6100206062012384F8203038BD0120EE
:1002FC00704790F82030013BDBB2012B05D9436AE3
:10030C0043F4802343620120704770B40368D3F830
:10031C00002242F00102C3F800224A6902F01F02D7
:10032C00012000FA02F2D3F81C42D0430440C3F877
:10033C001C42CC69ACB9D3F80C420440C3F80C4253
:10034C004C69CE688D8845EA0645483443F83450EC
:10035C004C698E680D8845EA0645483403EBC404A5
:10036C006560CC69012C19D08C6974BBD3F804423C
:10037C000440C3F804420C696CBBD3F8144220400F
:10038C00C3F81402096A01292BD0D3F8002222F0F9
:10039C000102C3F80022002070BC7047D3F80C4255
:1003AC001443C3F80C424C690E688D8845EA064527
:1003BC00483443F834504C698E688D8945EA0645BB
:1003CC00483403EBC4046560CEE7D3F8044214430D
:1003DC00C3F80442CFE7D3F814021043C3F8140255
:1003EC00D0E7D3F81C120A43C3F81C22CDE738B56A
:1003FC0090F82030DBB2012B05D0436A43F4002384
:10040C004362012038BD0446022380F82030026884
:10041C00136823F001031360FFF7D6FE054623682B
:10042C005B6813F0010F0DD0FFF7CEFE401B0A28BE
:10043C00F5D9636A43F400336362052384F82030F2
:10044C00012038BD0020606238BDF0B490F8204027
:10045C000568AD68013CE4B2012C06D9436A43F44B
:10046C00802343620120F0BC704715F0E05F5ED042
:10047C00C5F30165022D3FD80124AC401C608B688C
:10048C00002B3FD104680E68CB6843EA465605F151
:10049C0018031B01E65003680C6905F1180603EB01
:1004AC0006135C600B7D012B37D00168D4799379EE
:1004BC001B0443EA046314792343547943EA042369
:1004CC002D012944C1F88C310168D47893781B0430
:1004DC0043EA046314782343527843EA0223294401
:1004EC00C1F8883103681D44D5F8803143F001030D
:1004FC00C5F880310020B6E7436A43F40003436239
:10050C000120B0E704684E68CF683B4343EAC6035A
:10051C0005F118063601A351BDE7036803EB05137B
:10052C00D3F8841141F48071C3F88411BDE7436A98
:10053C0043F400134362012095E730B490F8204057
:10054C00013CE4B2012C06D9436A43F48023436294
:10055C00012030BC704700296BD10468E46814F0AA
:10056C00030F60D0056801F11B0424012C5904F021
:10057C0004049460002C67D1056801F11B0424016C
:10058C002C59640D1460056801F11B0424012D59CC
:10059C00C5F34005D560056825446D6805F00F0569
:1005AC001561056825446D68C5F3072595610568D7
:1005BC002C446468240C546104680A011444D4F873
:1005CC00B8411C7004681444D4F8B841240A5C7017
:1005DC0004681444D4F8B841240C9C700468144486
:1005EC00D4F8B841240EDC7004681444D4F8BC412F
:1005FC001C7104681444D4F8BC41240A5C7104686E
:10060C001444D4F8BC41240C9C7104682244D2F8E4
:10061C00BC21120EDA71F9B90268D36843F02003D9
:10062C00D360002095E7436A43F400134362012032
:10063C008FE70468246914F0030F93D1436A43F4E1
:10064C0000134362012084E7056801F11B042401B7
:10065C002C59E408546096E70268136943F02003B0
:10066C001361002075E790F82030013BDBB2012BC1
:10067C0005D9436A43F48023436201207047026822
:10068C005369194351610020704770477047704798
:10069C007047704770477047704770477047704796
:1006AC00704770472DE9F84F054603685C695F6831
:1006BC009E68D3F80C90D3F81080D3F818A014F0DF
:1006CC00010F5AD016F0010F17D001229A6016F0C4
:1006DC00020F08D116F0040F30D116F0080F07D016
:1006EC004FF4805B0BE0FFF7D0FF4FF0000B06E000
:1006FC00FFF7CEFF4FF0000B01E04FF0000B16F4AC
:10070C00807F0BD02B684FF480729A6016F4007FB8
:10071C0017D116F4806F18D04BF4005B16F4803FA1
:10072C002DD02B684FF480329A6016F4003F16D10E
:10073C0016F4802F17D04BF4004B20E04FF4006BD5
:10074C00DDE72846FFF7A2FFE8E716F4006F02D0BA
:10075C004BF4804BE2E72846FFF79BFFDEE7284689
:10076C00FFF795FF0BE016F4002F02D04BF4803B03
:10077C0005E02846FFF78EFF01E04FF0000B14F068
:10078C00080F07D019F0100F04D04BF4007B2B6826
:10079C001022DA6014F0040F02D019F0080F60D1A7
:1007AC0014F0020F04D02B68DB6813F0030F5FD139
:1007BC0014F0400F07D018F0100F04D04BF4806BDE
:1007CC002B6810221A6114F0200F02D018F0080FB9
:1007DC0052D114F0100F04D02B681B6913F0030FC7
:1007EC0051D114F4003F02D017F0100F4FD114F474
:1007FC00803F02D017F0080F50D114F4004F67D08F
:10080C0017F0040F61D014F4807F04D01AF0010F9C
:10081C0018BF4BF0010B14F4007F04D01AF0020F38
:10082C0018BF4BF0020B14F4806F04D01AF0040FB5
:10083C0018BF4BF0040B14F4006F46D01AF0700A7A
:10084C0043D0BAF1300F48D02FD9BAF1500F47D05E
:10085C00BAF1600F47D0BAF1400F31D14BF0400BD9
:10086C002EE02B680822DA602846FFF715FF97E781
:10087C002846FFF710FF9BE72B6808221A612846D1
:10088C00FFF70CFFA5E72846FFF707FFA9E72B6842
:10089C0010225A602846FFF702FFA8E72B680822AF
:1008AC005A602846FFF7FCFEA7E7BAF1100F05D0F7
:1008BC00BAF1200F04D14BF0100B01E04BF0080BF8
:1008CC002A68936923F0700393612B6804225A60A1
:1008DC00BBF1000F0AD1BDE8F88F4BF0200BEFE70E
:1008EC004BF0800BECE74BF4807BE9E76B6A4BEA4F
:1008FC0003036B622846FFF7D4FEECE7074AD36884
:10090C0023F4E0631B041B0C43F0BF6343F400337C
:10091C00000200F4E0600343D360704700ED00E098
:10092C0030B4154BDC68C4F30224C4F10703042B68
:10093C0028BF0423251D062D8CBFE51E0025012490
:10094C0004FA03F3013B1940A940AC40013C22409E
:10095C001143002809DB0901C9B200F1604000F520
:10096C00614080F8001330BC704700F00F000901A3
:10097C00C9B2024B1954F6E700ED00E014ED00E0AB
:10098C00420900F01F00012303FA00F0014B43F869
:10099C002200704700E100E00138B0F1807F0AD2FC
:1009AC00064B5860F021064A82F82310002098600C
:1009BC0007221A6070470120704700BF10E000E06A
:1009CC0000ED00E02DE9F04F85B06FF01F0400261C
:1009DC003246DFF8D0E1DFF8D0C16E4DDFF8CC81C4
:1009EC000196A2E0B9F1000F1DD0B9F1010F27D18A
:1009FC00CE68019624E0684EB14514D00BD9674EF1
:100A0C00B14510D006F58036B1450CD0DFF8A0A169
:100A1C00D14515D107E0DFF89CA1D14503D00AF5EB
:100A2C00803AD1450CD18E68002E00F0A480012EA6
:100A3C000CBF076147610826019601E0002601966C
:100A4C00FF2B99BF8146076800F104094768FF2B0B
:100A5C0094BF4FEA820AA2464FF00F0B0BFA0AFB27
:100A6C0027EA0B07019E06FA0AFA47EA0A07C9F8B1
:100A7C0000704F6817F0805F53D0DEF8187047F0A5
:100A8C000107CEF81870DEF8187007F0010703970D
:100A9C00039F22F0030707F1804707F58037D7F84B
:100AAC0008A002F003094FEA890B4FF00F0909FA6D
:100ABC000BF92AEA090A604560D0404561D0384EEE
:100ACC00B04261D006F58066B0420CBF4FF003090E
:100ADC004FF0040909FA0BF949EA0A09C7F808901A
:100AEC004F6817F4803F2F6814BF1F439F432F603C
:100AFC004F6817F4003F6F6814BF1F439F436F602C
:100B0C004F6817F4801FAF6814BF1F439F43AF603B
:100B1C004F6817F4001FEF6814BF3B4327EA030329
:100B2C00EB6001320434102A31D0012797400B6856
:100B3C003B409F42F5D1D1F80490B9F1120F16D079
:100B4C003FF659AFB9F1020F0DD07FF64BAFB9F1AB
:100B5C00030F3FF473AFB9F1110F7FF471AFCE688F
:100B6C00043601966CE7CE680836019668E7CE68C5
:100B7C000C36019664E70426019661E74FF00009F4
:100B8C00A8E74FF00109A5E74FF00209A2E705B06D
:100B9C00BDE8F08F0004014000002110000031106E
:100BAC00001001400010024000080140000C014000
:100BBC00000022100000111012B9090401617047E5
:100BCC00016170472DE9F04182B00446036813F0CF
:100BDC00010F3DD0AB4B5B6803F00C03042B2ED004
:100BEC00A84B5B6803F00C03082B23D06368B3F5A8
:100BFC00803F51D0002B55D103F1804303F50433D2
:100C0C001A6822F480321A601A6822F480221A6060
:100C1C006368002B60D0FFF7D7FA0646994D2B6816
:100C2C0013F4003F14D1FFF7CFFA801B6428F6D9D8
:100C3C000320BFE1934B5B6813F4803FD6D0914BFC
:100C4C001B6813F4003F03D06368002B00F0AF81E6
:100C5C00236813F0020F65D08A4B5B6813F00C0FFE
:100C6C004ED0884B5B6803F00C03082B43D02369F0
:100C7C00002B79D00122844B1A60FFF7A5FA0646A7
:100C8C00804D2B6813F0020F65D1FFF79DFA801B86
:100C9C000228F6D903208DE17A4A136843F4803395
:100CAC001360B5E7B3F5A02F09D0764B1A6822F480
:100CBC0080321A601A6822F480221A60A8E703F1C5
:100CCC008043A3F53C331A6842F480221A601A68F8
:100CDC0042F480321A609BE7FFF776FA0646694DBC
:100CEC002B6813F4003FB3D0FFF76EFA801B642817
:100CFC00F6D903205EE1634B5B6813F4803FB6D1F9
:100D0C00604B1B6813F0020F04D02369012B01D038
:100D1C0001204FE15B4A1368616923F0F80343EA51
:100D2C00C1031360236813F0080F3CD0A369002B98
:100D3C0079D00122554B1A60FFF746FA0646514D01
:100D4C006B6A13F0020F21D1FFF73EFA801B0228C9
:100D5C00F6D903202EE14B4A1368616923F0F8039E
:100D6C0043EAC1031360DDE70022474B1A60FFF72B
:100D7C002BFA0646434D2B6813F0020FD2D0FFF727
:100D8C0023FA801B0228F6D9032013E1404B1B6881
:100D9C00404AA2FB03235B0A019300BF019B5A1E2E
:100DAC000192002BF9D1236813F0040F00F09F80FF
:100DBC00344BDB6913F0805F47D1324BDA6942F078
:100DCC008052DA61DB6903F080530093009B0125AC
:100DDC00314B1B6813F4807F39D0E368012B4AD068
:100DEC00002B5BD103F1804303F504331A6A22F024
:100DFC0001021A621A6A22F004021A62E368002BDA
:100E0C0062D0FFF7E1F980461E4E41F28837336A13
:100E1C0013F0020F6AD1FFF7D7F9A0EB0800B84224
:100E2C00F5D90320C6E00022184B1A60FFF7CCF965
:100E3C000646144D6B6A13F0020FB4D0FFF7C4F9D9
:100E4C00801B0228F6D90320B4E00025C0E7124A23
:100E5C00136843F480731360FFF7B6F907460E4E20
:100E6C00336813F4807FB8D1FFF7AEF9C01B642848
:100E7C00F6D903209EE0034A136A43F00103136280
:100E8C00BCE700BF00100240000042428004424216
:100E9C0008000020D34D621000700040052B09D0D3
:100EAC00474B1A6A22F001021A621A6A22F00402F3
:100EBC001A62A3E7424B1A6A42F004021A621A6AD7
:100ECC0042F001021A6299E7FFF77EF980463C4E28
:100EDC0041F28837336A13F0020F07D0FFF774F929
:100EEC00A0EB0800B842F5D9032063E0E5B9E3694B
:100EFC00002B5ED0324A526802F00C02082A5CD0F9
:100F0C00022B17D000222F4B1A60FFF75DF9054614
:100F1C002B4C236813F0007F47D0FFF755F9401B8B
:100F2C000228F6D9032045E0254AD36923F08053E3
:100F3C00D361DCE70022234B1A60FFF745F9064624
:100F4C001F4D2B6813F0007F06D0FFF73DF9801B77
:100F5C000228F6D903202DE0236AB3F5803F1AD07E
:100F6C0017494A68236A606A034322F474121343D4
:100F7C004B600122134B1A60FFF726F90546104C03
:100F8C00236813F0007F0ED1FFF71EF9401B0228D7
:100F9C00F6D903200EE00A4A536823F40033A16803
:100FAC000B435360DCE7002004E0002002E001204A
:100FBC0000E0002002B0BDE8F0810120FAE700BF9C
:100FCC00001002406000424200B587B0174B0FCBB7
:100FDC000DF1180E0EE90F0001238DF804300223D9
:100FEC008DF80530124B5B6803F00C02082A18D1FF
:100FFC00C3F38342724412F8102C13F4803F03D1D4
:10100C000C4800FB02F00DE0094B5B680A4800FB42
:10101C0002F0C3F34043734413F8143CB0FBF3F0F9
:10102C0000E0054807B05DF804FB00BFBC150008E4
:10103C000010024000093D0000127A00664B1B684C
:10104C0003F007038B420CD2634A136823F00703A7
:10105C000B431360136803F00703994201D001207E
:10106C0070472DE9F041036813F0020F17D013F00D
:10107C00040F04D0594A536843F4E0635360036887
:10108C0013F0080F04D0554A536843F4605353606F
:10109C00524A536823F0F0038468234353600C4690
:1010AC000546036813F0010F57D04268012A24D07B
:1010BC00022A2AD0494B1B6813F0020F00F08980DA
:1010CC0046494B6823F0030313434B60FFF77CF84E
:1010DC0006466B68012B20D0022B2ED03F4F41F2DD
:1010EC0088387B6813F00C0F37D0FFF76DF8801B36
:1010FC004045F6D90320BDE8F081384B1B6813F44A
:10110C00003FDDD10120BDE8F081344B1B6813F0AA
:10111C00007FD5D10120BDE8F081304F41F28838F5
:10112C007B6803F00C03042B17D0FFF74DF8801BE2
:10113C004045F5D90320BDE8F081284F41F28838AD
:10114C007B6803F00C03082B07D0FFF73DF8801BDE
:10115C004045F5D90320BDE8F0811F4B1B6803F017
:10116C0007039C420DD21C4A136823F00703234348
:10117C001360136803F007039C4202D00120BDE802
:10118C00F0812B6813F0040F06D0144A536823F433
:10119C00E063E9680B4353602B6813F0080F07D02A
:1011AC000E4A5368296923F4605343EAC103536020
:1011BC00FFF70AFF094B5B68C3F30313084AD35CC0
:1011CC00D840084B18600020FEF7BAFF0020BDE89D
:1011DC00F0810120BDE8F0810020024000100240A7
:1011EC00CC1500080800002030B591B02822002151
:1011FC0006A800F0C9F90024019402940394049405
:10120C000594012206924FF4803307930A9202252B
:10121C000D950E934FF4E0130F9306A8FFF7D2FC35
:10122C000F230193029503944FF480630493059468
:10123C00294601A8FFF702FF11B030BD80B588B078
:10124C00FEF7A4FFFFF7D0FF002404940594069446
:10125C0007943E4B9A6942F010029A619A6902F027
:10126C0010020092009A9A6942F020029A619A69DF
:10127C0002F020020192019A9A6942F004029A61EA
:10128C009A6902F004020292029A9A6942F00802E8
:10129C009A619B6903F008030393039BDFF8C480F6
:1012AC0022464FF400514046FFF786FC284D22465B
:1012BC004FF470612846FFF77FFC4FF40053049302
:1012CC000126059606940227079704A94046FFF7C6
:1012DC0079FB4FF47063049305960694079704A961
:1012EC002846FFF76FFB1B4D1B4B2B6012236B60CB
:1012FC00AC60EC604FF430232B614FF440136B6106
:10130C002C766C76AC76EC762C776C772846FEF7E0
:10131C0061FF124B1E619C60DC6040F245221A603A
:10132C000F490C614FF491430B604C608C60CC60A6
:10133C00CC618E610E622846FEF7DBFF2846FFF774
:10134C0056F839462846FFF78EF9FEE700100240A2
:10135C00000801407C00002000640040A800002030
:10136C002C0000200010014082B00E4B9A6942F014
:10137C0001029A619A6902F001020092009ADA69FC
:10138C0042F08052DA61DB6903F080530193019BD8
:10139C00054A536823F0E06343F08063536002B066
:1013AC00704700BF001002400000014030B587B00C
:1013BC000023029303930493059302681F4B9A42F4
:1013CC0001D007B030BD03F5D633DA6942F00072B4
:1013DC00DA61DA6902F000720092009A9A6942F0BE
:1013EC0008029A619B6903F008030193019B06AC08
:1013FC004FF4807344F8103D114D21462846FFF7F9
:10140C00E1FA4FF400730293022303930323059331
:10141C0021462846FFF7D6FA0A4A536823F4C043FC
:10142C0043F0E06343F48043536000220121142015
:10143C00FFF776FA1420FFF7A3FAC2E70064004026
:10144C00000C0140000001407047FEE7FEE7FEE79C
:10145C00FEE770477047704708B5FEF7A9FE08BD58
:10146C0038B50B4D2846FFF71DF90A4C23460A4A9E
:10147C0000212846FFF761F8084B22460849284608
:10148C00FEF7E3FF23781B03064AD36038BD00BF89
:10149C007C00002056000020600000205800002036
:1014AC00A8000020001001400F4B1A6842F0010206
:1014BC001A6059680D4A0A405A601A6822F0847200
:1014CC0022F480321A601A6822F480221A605A6858
:1014DC0022F4FE025A604FF41F029A604FF0006231
:1014EC00034B9A60704700BF001002400000FFF8E9
:1014FC0000ED00E0002103E00B4B5B58435004313E
:10150C000A480B4B42189A42F6D30A4A02E00023CF
:10151C0042F8043B084B9A42F9D3FFF7C5FF00F0A1
:10152C000FF8FFF78BFE7047E41500080000002051
:10153C000C0000200C000020C0000020FEE7000082
:10154C0070B500250C4E0D4CA41BA410A54209D15E
:10155C0000F022F800250A4E0A4CA41BA410A54248
:10156C0005D170BD56F8253098470135EEE756F891
:10157C00253098470135F2E7DC150008DC1500082A
:10158C00DC150008E015000803460244934200D124
:10159C00704703F8011BF9E7F8B500BFF8BC08BCAD
:1015AC009E467047F8B500BFF8BC08BC9E46704715
:1015BC0002030405060708090A0B0C0D0E0F101088
:1015CC0000000000000000000102030406070809E7
:0415DC0031010008D1
:0415E0000D010008F1
:0C15E400010000001000000000A24A04FA
:0400000508001501D9
:00000001FF
