:020000040800F2
:100000000000022041190008551800085718000880
:10001000591800085B1800085D180008000000006F
:100020000000000000000000000000005F18000851
:100030006118000800000000631800086518000837
:1000400091190008911900089119000891190008E8
:1000500091190008911900086D18000891190008FD
:1000600091190008911900089119000891190008C8
:1000700091190008911900089119000891190008B8
:1000800091190008911900089119000891190008A8
:10009000BD1800089119000891190008911900086D
:1000A0009119000891190008911900089119000888
:1000B0009119000891190008911900089119000878
:1000C0009119000891190008911900089119000868
:1000D0009119000891190008911900089119000858
:1000E0009119000891190008911900089119000848
:1000F0009119000891190008911900089119000838
:100100009119000891190008911900089119000827
:100110009119000891190008911900089119000817
:100120009119000891190008911900089119000807
:10013000911900080000000000000000911900085B
:1001400091190008911900089119000891190008E7
:1001500091190008911900089119000891190008D7
:1001600091190008911900089119000891190008C7
:10017000911900089119000800000000000000001B
:08018000911900089119000813
:1001880010B5054C237833B9044B13B10448AFF3C9
:1001980000800123237010BD0C0000200000000027
:1001A800EC19000808B5034B1BB103490348AFF32A
:1001B800008008BD0000000010000020EC190008B5
:1001C80053B94AB9002908BF00281CBF4FF0FF31B6
:1001D8004FF0FF3000F07AB9ADF1080C6DE904CEAC
:1001E80000F006F8DDF804E0DDE9022304B070470A
:1001F8002DE9F0478C460D460446089E002B51D148
:100208008A4217466DD9B2FA82FEBEF1000F0BD0B2
:10021800CEF1200C01FA0EF520FA0CFC02FA0EF7CA
:100228004CEA050C00FA0EF44FEA174A250CBCFB01
:10023800FAF81FFA87F90AFB18CC45EA0C4508FBBF
:1002480009F3AB420AD9ED1908F1FF3280F0238196
:10025800AB4240F22081A8F102083D44ED1AA4B255
:10026800B5FBFAF00AFB105544EA054400FB09F90E
:10027800A14509D9E41900F1FF3380F00A81A145AD
:1002880040F2078102383C44A4EB090440EA0840E4
:100298000021002E61D024FA0EF40023346073602C
:1002A800BDE8F0878B4207D9002E54D0002186E89C
:1002B80021000846BDE8F087B3FA83F1002940F031
:1002C8008E80AB4202D3824200F2FA80841A65EB38
:1002D80003050120AC46002E3FD086E81010BDE88B
:1002E800F08712B90127B7FBF2F7B7FA87FEBEF11C
:1002F800000F34D1EB1B3A0C1FFA87FC0121B3FB2A
:10030800F2F8250C02FB183345EA03450CFB08F309
:10031800AB4207D9ED1908F1FF3002D2AB4200F227
:10032800D1808046ED1AA3B2B5FBF2F002FB10555E
:1003380043EA05440CFB00FCA44507D9E41900F185
:10034800FF3302D2A44500F2B8801846A4EB0C048F
:1003580040EA08409DE731463046BDE8F087CEF1D7
:10036800200405FA0EF307FA0EF720FA04F83A0CFF
:1003780025FA04F448EA0308B4FBF2F14FEA1845F9
:1003880002FB11441FFA87FC45EA044501FB0CF304
:10039800AB4200FA0EF409D9ED1901F1FF3080F0F3
:1003A8008A80AB4240F2878002393D44EB1A1FFA3B
:1003B80088F5B3FBF2F002FB103345EA034500FB76
:1003C8000CF3AB4207D9ED1900F1FF386FD2AB42FD
:1003D8006DD902383D44EB1A40EA01418FE7C1F17B
:1003E800200722FA07F88B4005FA01F448EA0303CC
:1003F80020FA07FE4FEA134CFD404EEA040EB5FB07
:10040800FCF94FEA1E440CFB19551FFA83F844EA1D
:10041800054509FB08F4AC4202FA01F200FA01FAB8
:1004280008D9ED1809F1FF3043D2AC4241D9A9F1FE
:1004380002091D442D1B1FFA8EFEB5FBFCF00CFBB8
:1004480010554EEA054400FB08F8A04507D9E41802
:1004580000F1FF3529D2A04527D902381C4440EACB
:100468000940A4EB0804A0FB02894C45C6464D464A
:1004780015D312D056B1BAEB0E0364EB050404FA97
:1004880007F7CB401F43CC40376074600021BDE8BC
:10049800F0871846F8E69046E0E6C245EAD2B8EB9F
:1004A800020E69EB03050138E4E72846D7E7404622
:1004B80091E78146BEE7014678E702383C4445E7C4
:1004C800084608E7A8F102083D442BE7704700BF3B
:1004D80010B504460E4B18784FF47A73B3FBF0F35B
:1004E8000C4A1068B0FBF3F000F056FC68B90F2C0A
:1004F80001D9012010BD002221464FF0FF3000F045
:100508000DFC054B1C60002010BD012010BD00BF74
:1005180000000020080000200400002008B50B4B54
:100528001A6842F400721A601A6842F480621A600B
:100538001A6842F480721A60032000F0DDFB002084
:10054800FFF7C6FF01F026F9002008BD003C024075
:10055800034A1168034B1B780B441360704700BFB4
:100568002800002000000020014B1868704700BFD9
:100578002800002038B50446FFF7F6FF0546B4F119
:10058800FF3F02D0044B1B781C44FFF7EDFF401BD4
:100598008442FAD838BD00BF00000020002800F0CF
:1005A8008A8038B5044690F82030D3B122681368A1
:1005B80023F002031360FFF7D7FF054623685A6844
:1005C80012F0020F10D0FFF7CFFF401B0A28F5D911
:1005D800636A43F400336362052384F82030012002
:1005E80038BD01F0F3F8E1E71A6842F001021A6039
:1005F800FFF7BAFF054623685A6812F0010F0DD1BC
:10060800FFF7B2FF401B0A28F5D9636A43F40033A9
:100618006362052384F82030012038BD227E012A38
:100628001A680CBF42F0800222F080021A60637ED2
:10063800012B226813680CBF43F0400323F04003EA
:100648001360A37E012B226813680CBF43F02003BC
:1006580023F020031360E37E012B226813680CBF8C
:1006680023F0100343F010031360237F012B22684B
:1006780013680CBF43F0080323F008031360637F7B
:10068800012B226813680CBF43F0040323F0040312
:1006980013602168A368E2681343226913436269FF
:1006A80013436268013A1343CB610020606201235F
:1006B80084F8203038BD01207047000090F82030C1
:1006C800013BDBB2012B05D9436A43F48023436223
:1006D8000120704770B4434BD3F8002242F0010266
:1006E800C3F80022D3F8002222F47C52C3F8002277
:1006F800D3F80022486A42EA0022C3F800224A6975
:1007080002F01F02012000FA02F2D3F81C42D04383
:100718000440C3F81C42CB69B3B9324BD3F80C423E
:100728000440C3F80C424C69CE688D8845EA0645FA
:10073800483443F834504D698E680C8844EA0644BE
:10074800483503EBC5035C60CB69012B1DD08B6971
:10075800002B32D1234CD4F804320340C4F80432BD
:100768000B698BBB1F4BD3F814422040C3F814020B
:100778000B6A012B2FD01B4AD2F8003223F0010359
:10078800C2F80032002070BC7047164BD3F80C42F8
:100798001443C3F80C424C690E688D8845EA064537
:1007A800483443F834504D698E688C8944EA0644CD
:1007B800483503EBC5035C60C9E70A4CD4F804323A
:1007C8001343C4F80432CBE70648D0F81432134375
:1007D800C0F81432CCE7034BD3F81C120A43C3F811
:1007E8001C22C8E70064004038B590F82030DBB21E
:1007F800012B05D0436A43F400234362012038BD2E
:100808000446022380F820300268136823F00103AD
:100818001360FFF7A9FE054623685B6813F0010F14
:100828000DD0FFF7A1FE401B0A28F5D9636A43F4EF
:1008380000336362052384F82030012038BD00208E
:10084800606238BDF0B490F820400568AD68013C9E
:10085800E4B2012C06D9436A43F4802343620120A1
:10086800F0BC704715F0E05F5ED0C5F30165022D5E
:100878003FD80124AC401C608B68002B3FD1046832
:100888000E68CB6843EA465605F118031B01E6508B
:1008980003680C6905F1180603EB06135C600B7D11
:1008A800012B37D00168D47993791B0443EA046398
:1008B80014792343547943EA04232D012944C1F8C8
:1008C8008C310168D47893781B0443EA0463147864
:1008D8002343527843EA02232944C1F88831036844
:1008E8001D44D5F8803143F00103C5F8803100205C
:1008F800B6E7436A43F4000343620120B0E70468A3
:100908004E68CF683B4343EAC60305F11806360133
:10091800A351BDE7036803EB0513D3F8841141F431
:100928008071C3F88411BDE7436A43F4001343623E
:10093800012095E730B490F82040013CE4B2012C46
:1009480006D9436A43F480234362012030BC7047D0
:1009580000296BD10468E46814F0030F60D00568BF
:1009680001F11B0424012C5904F004049460002CA8
:1009780067D1056801F11B0424012C59640D14602A
:10098800056801F11B0424012D59C5F34005D56004
:10099800056825446D6805F00F051561056825444F
:1009A8006D68C5F30725956105682C446468240CB7
:1009B800546104680A011444D4F8B8411C700468EE
:1009C8001444D4F8B841240A5C7004681444D4F878
:1009D800B841240C9C7004681444D4F8B841240E1F
:1009E800DC7004681444D4F8BC411C7104681444D5
:1009F800D4F8BC41240A5C7104681444D4F8BC419E
:100A0800240C9C7104682244D2F8BC21120EDA71BD
:100A1800F9B90268D36843F02003D360002095E752
:100A2800436A43F40013436201208FE70468246992
:100A380014F0030F93D1436A43F400134362012077
:100A480084E7056801F11B0424012C59E40854606B
:100A580096E70268136943F020031361002075E7E5
:100A680090F82030013BDBB2012B05D9436A43F4EF
:100A7800802343620120704702685369194351611A
:100A8800002070477047704770477047704770473D
:100A980070477047704770477047704770472DE937
:100AA800F84F054603685C695F689E68D3F80C9048
:100AB800D3F81080D3F818A014F0010F5AD016F00C
:100AC800010F17D001229A6016F0020F08D116F014
:100AD800040F30D116F0080F07D04FF4805B0BE0FD
:100AE800FFF7D0FF4FF0000B06E0FFF7CEFF4FF007
:100AF800000B01E04FF0000B16F4807F0BD02B6841
:100B08004FF480729A6016F4007F17D116F4806F44
:100B180018D04BF4005B16F4803F2DD02B684FF4AF
:100B280080329A6016F4003F16D116F4802F17D041
:100B38004BF4004B20E04FF4006BDDE72846FFF74D
:100B4800A2FFE8E716F4006F02D04BF4804BE2E70F
:100B58002846FFF79BFFDEE72846FFF795FF0BE0E7
:100B680016F4002F02D04BF4803B05E02846FFF72F
:100B78008EFF01E04FF0000B14F0080F07D019F0BA
:100B8800100F04D04BF4007B2B681022DA6014F0AD
:100B9800040F02D019F0080F60D114F0020F04D02E
:100BA8002B68DB6813F0030F5FD114F0400F07D0F8
:100BB80018F0100F04D04BF4806B2B6810221A61C8
:100BC80014F0200F02D018F0080F52D114F0100FB3
:100BD80004D02B681B6913F0030F51D114F4003FA4
:100BE80002D017F0100F4FD114F4803F02D017F045
:100BF800080F50D114F4004F67D017F0040F61D0DC
:100C080014F4807F04D01AF0010F18BF4BF0010BC9
:100C180014F4007F04D01AF0020F18BF4BF0020B37
:100C280014F4806F04D01AF0040F18BF4BF0040BB3
:100C380014F4006F46D01AF0700A43D0BAF1300F9E
:100C480048D02FD9BAF1500F47D0BAF1600F47D02A
:100C5800BAF1400F31D14BF0400B2EE02B6808223F
:100C6800DA602846FFF715FF97E72846FFF710FFD9
:100C78009BE72B6808221A612846FFF70CFFA5E7B7
:100C88002846FFF707FFA9E72B6810225A60284675
:100C9800FFF702FFA8E72B6808225A602846FFF7EB
:100CA800FCFEA7E7BAF1100F05D0BAF1200F04D166
:100CB8004BF0100B01E04BF0080B2A68936923F006
:100CC800700393612B6804225A60BBF1000F0AD1AC
:100CD800BDE8F88F4BF0200BEFE74BF0800BECE70B
:100CE8004BF4807BE9E76B6A4BEA03036B622846A7
:100CF800FFF7D4FEECE70000074AD36823F4E0636B
:100D08001B041B0C43F0BF6343F40033000200F4E0
:100D1800E0600343D360704700ED00E030B4154B4A
:100D2800DC68C4F30224C4F10703042B28BF04239E
:100D3800251D062D8CBFE51E0025012404FA03F3AA
:100D4800013B1940A940AC40013C22401143002816
:100D580009DB0901C9B200F1604000F5614080F883
:100D6800001330BC704700F00F000901C9B2024BF4
:100D78001954F6E700ED00E014ED00E0002808DB68
:100D8800420900F01F00012303FA00F0014B43F869
:100D98002200704700E100E00138B0F1807F0AD2FC
:100DA800064B5860F021064A82F82310002098600C
:100DB80007221A6070470120704700BF10E000E06A
:100DC80000ED00E02DE9F04F83B00025694FDFF812
:100DD800B0E1694EDFF8AC91DFF8ACA156E0EC0861
:100DE80000EB8404D4F820C005F007024FEA820B18
:100DF8000F2202FA0BF22CEA020C0A6902FA0BF231
:100E080042EA0C0222624DE0846802EA040BCC68D4
:100E180004FA0CF444EA0B048460446824EA030BE3
:100E28004C68C4F30013AB4043EA0B03436050E043
:100E3800002202FA0CF222439A6033686FEA08042F
:100E48004A6812F4803F0CBF234048EA030333602A
:100E580073684A6812F4003F0CBF234048EA030352
:100E68007360B2684B6813F4801F0CBF224048EAD5
:100E78000202B260F3684A6812F4001F0CBF2340F4
:100E880048EA0303F3600135102D70D00123AB400D
:100E98000A6803EA02084345F5D14A6822F01002BD
:100EA800022A9CD004684FEA450C032202FA0CF28D
:100EB800D24304EA020B4C6804F0030404FA0CF46D
:100EC80044EA0B0404604C6824F01004013C012C33
:100ED8009AD9C3681A408B6803FA0CF31343C360AA
:100EE8004B6813F0805FCED0002301937B6C43F4F2
:100EF80080437B647B6C03F480430193019B25F062
:100F0800030303F1804303F59C339C6805F0030257
:100F18004FEA820C0F2202FA0CF224EA020470450E
:100F280086D0484517D0504517D0144A904216D05D
:100F380002F58062904214D002F58062904212D08D
:100F480002F58062904210D002F5806290420CBF98
:100F5800072208226DE701226BE7022269E70322D4
:100F680067E7042265E7052263E7062261E703B025
:100F7800BDE8F08F00380240003C0140000C024000
:100F880000000240000402400008024003691942C0
:100F980014BF01200020704712B90904816170470D
:100FA80081617047436931EA030308BF090481611D
:100FB8007047704708B5054B5B69034200D108BD0F
:100FC800024B5861FFF7F5FFF9E700BF003C01400D
:100FD800002800F0BD812DE9F04182B00446036885
:100FE80013F0010F3BD0A84B9B6803F00C03042BB4
:100FF8002CD0A54B9B6803F00C03082B21D0636809
:10100800B3F5803F4FD0B3F5A02F52D09E4B1A684E
:1010180022F480321A601A6822F480221A60636807
:10102800002B50D0FFF7A0FA0646974D2B6813F413
:10103800003F14D1FFF798FA801B6428F6D90320E3
:101048008BE1914B5B6813F4800FD8D08E4B1B68F3
:1010580013F4003F03D06368002B00F07B81236802
:1010680013F0020F55D0884B9B6813F00C0F3ED03D
:10107800854B9B6803F00C03082B33D0E368002BE7
:1010880068D00122814B1A60FFF76EFA06467E4D42
:101098002B6813F0020F54D1FFF766FA801B022861
:1010A800F6D9032059E1784A136843F48033136072
:1010B800B5E7754B1A6842F480221A601A6842F440
:1010C80080321A60ABE7FFF74FFA06466E4D2B6881
:1010D80013F4003FC3D0FFF747FA801B6428F6D902
:1010E80003203AE1684B5B6813F4800FC6D1664B66
:1010F8001B6813F0020F04D0E368012B01D0012014
:101108002BE1614A1368216923F0F80343EAC1031C
:101118001360236813F0080F40D0636963B301229A
:101128005B4B1A60FFF720FA0646574D6B6F13F0BA
:10113800020F33D1FFF718FA801B0228F6D90320D3
:101148000BE1514A1368216923F0F80343EAC1030C
:101158001360DEE700224D4B1A60FFF705FA0646DA
:10116800494D2B6813F0020FD3D0FFF7FDF9801B10
:101178000228F6D90320F0E00022454B1A60FFF759
:10118800F3F90646404D6B6F13F0020F06D0FFF7D8
:10119800EBF9801B0228F6D90320DEE0236813F060
:1011A800040F7AD0384B1B6C13F0805F34D10023C6
:1011B8000193354B1A6C42F080521A641B6C03F091
:1011C80080530193019B0125324B1B6813F4807FE8
:1011D80024D0A368012B35D0052B39D02A4B1A6FA0
:1011E80022F001021A671A6F22F004021A67A36834
:1011F800002B37D0FFF7B8F98046234E41F28837E5
:10120800336F13F0020F47D1FFF7AEF9A0EB0800D8
:10121800B842F5D90320A0E00025D5E71D4A136898
:1012280043F480731360FFF79FF90746194E33683C
:1012380013F4807FCDD1FFF797F9C01B0228F6D9A8
:1012480003208AE0104A136F43F001031367CEE7C7
:101258000D4B1A6F42F004021A671A6F42F001022E
:101268001A67C4E7FFF780F98046074E41F28837CE
:10127800336F13F0020F0FD0FFF776F9A0EB0800D9
:10128800B842F5D9032068E0003802400000474220
:10129800800E474200700040E5B9A369002B5BD07F
:1012A800304A926802F00C02082A59D0022B17D053
:1012B80000222D4B1A60FFF757F90546294C236881
:1012C80013F0007F42D0FFF74FF9401B0228F6D9F0
:1012D800032042E0234A136C23F080531364DCE7B5
:1012E8000022214B1A60FFF73FF906461D4D2B6877
:1012F80013F0007F06D0FFF737F9801B0228F6D9D4
:1013080003202AE0E369226A1343626A43EA8213EC
:10131800E26A43EA0263A26A5208013A43EA0243D4
:10132800104A53600122104B1A60FFF71DF9054659
:101338000C4C236813F0007F06D1FFF715F9401B0A
:101348000228F6D9032008E0002006E0002004E087
:1013580001207047012000E0002002B0BDE8F081C4
:101368000120FAE70038024060004742F8B5314BE7
:101378009B6803F00C03042B03D0082B03D02E48E2
:10138800F8BD2E48F8BD2B4B5A6802F03F025B6847
:1013980013F4800F2AD0274B5B68C3F388131E46CB
:1013A80000275C010025E41A65EB0705A90141EA5D
:1013B8009461A001001B61EB0501CB0043EA507367
:1013C800C400A01943EB07014B0243EAD05344027F
:1013D800204619460023FEF7F3FE164B5B68C3F35D
:1013E800014301335B00B0FBF3F0F8BD114B5B68C0
:1013F800C3F388131E4600275C010025E41A65EB39
:101408000705A90141EA9461A001001B61EB0501F0
:10141800CB0043EA5073C400A01943EB07018B02C9
:1014280043EA90538402204619460023FEF7C8FE7B
:10143800D3E700BF003802400024F40000127A000D
:10144800002800F0A5802DE9F0410446534B1B68A5
:1014580003F00F038B420AD2CBB2504A13701368C1
:1014680003F00F03994202D00120BDE8F081236800
:1014780013F0020F17D013F0040F04D0484A9368F2
:1014880043F4E0539360236813F0080F04D0444AF0
:10149800936843F460439360414A936823F0F003F0
:1014A800A068034393600D46236813F0010F36D0FC
:1014B8006268012A23D0931E012B28D9384B1B6858
:1014C80013F0020F66D036498B6823F003031343E9
:1014D8008B60FFF749F88046314E41F28837B36890
:1014E80003F00C036268B3EB820F18D0FFF73CF8E7
:1014F800A0EB0800B842F2D90320BDE8F081284BE0
:101508001B6813F4003FDED10120BDE8F081244BB5
:101518001B6813F0007FD6D10120BDE8F0811F4B76
:101528001B6803F00F039D420AD2EAB21B4B1A70E4
:101538001B6803F00F039D4202D00120BDE8F08133
:10154800236813F0040F06D0154A936823F4E05378
:10155800E1680B439360236813F0080F07D0104A23
:101568009368216923F4604343EAC1039360FFF75A
:10157800FDFE0B4B9B68C3F303130A4AD35CD840A8
:10158800094B18600020FEF7A3FF0020BDE8F0819A
:10159800012070470120BDE8F08100BF003C0240F7
:1015A80000380240041A00080800002030B595B041
:1015B8003022002108A800F00DFA002403940494B6
:1015C80005940694079401941B4B1A6C42F08052C0
:1015D8001A641B6C03F080530193019B0294174B10
:1015E8001A6842F480421A601B6803F4804302932D
:1015F800029B012308934FF48033099302250E952B
:101608004FF480030F9304231093A822119212958C
:10161800139308A8FFF7DCFC0F23039304950594A4
:101628004FF4A05306934FF480530793052103A862
:10163800FFF706FF15B030BD0038024000700040CB
:1016480000B589B0FEF76AFFFFF7B0FF00240394E6
:1016580004940594069407940094444B1A6B42F042
:1016680080021A631A6B02F080020092009A0194B9
:101678001A6B42F001021A631A6B02F0010201921E
:10168800019A02941A6B42F004021A631B6B03F06E
:1016980004030293029B364D22464FF4805128469C
:1016A800FFF77AFC01260396324B0493059403A9AD
:1016B8003148FFF787FB4FF4805303930496059452
:1016C800069403A92846FFF77DFB224631460620EB
:1016D800FFF724FB0620FFF751FB284D284B2B6012
:1016E80015236B60AC60EC604FF430232B614FF432
:1016F80040136B612C766C76AC76EC762C776C7735
:101708002846FEF74BFF1F4B1E619C60DC604FF4C0
:1017180011721A601C490C6144F6A0030B604C60FE
:101728008C60CC60CC618E610E622846FEF7C6FFE5
:101738002846FFF759F802212846FFF791F9134E7A
:10174800134D04F1804404F5023433462A460D490A
:101758000A48FFF777F84FF4FA60FEF70BFF4FF4EB
:1017680080512046FFF71EFCEFE700BF003802401B
:10177800000802400000111000000240780000201C
:1017880000640040A40000202C0000205800002025
:10179800A000002082B0002100910B4B5A6C42F44B
:1017A80080425A645A6C02F480420092009A019175
:1017B8001A6C42F080521A641B6C03F08053019338
:1017C800019B02B0704700BF0038024030B589B0B5
:1017D8000023039304930593069307930268194B18
:1017E8009A4201D009B030BD0024019403F5EA33D0
:1017F8001A6C42F000721A641A6C02F000720192BC
:10180800019A02941A6B42F001021A631B6B03F0EF
:1018180001030293029B4FF4C053039302250495DE
:10182800032306930923079303A90748FFF7CAFA76
:10183800224629461420FFF771FA1420FFF79EFA72
:10184800D0E700BF00640040000002407047FEE798
:10185800FEE7FEE7FEE770477047704708B5FEF7FA
:1018680077FE08BD08B50120FFF7A4FB01210B484E
:10187800FFF78CFB18B90120FFF79CFB08BD084A4D
:1018880013780133DBB213701B0306494B61064B17
:1018980006490748FEF7D6FFEDE700BF0000024003
:1018A800A00000200008024058000020A4000020EA
:1018B8007800002038B5094D2846FFF7F0F8084CA5
:1018C8002346084A00212846FFF734F823780133D5
:1018D800DBB223701B03044A536138BD7800002033
:1018E800540000205C000020000802400F49D1F895
:1018F800883043F47003C1F888300D4B1A6842F001
:1019080001021A60002098601A6822F0847222F49A
:1019180080321A60074A5A601A6822F480221A60D4
:10192800D8604FF000638B60704700BF00ED00E0A7
:101938000038024010300024DFF834D0002103E0E2
:101948000C4B5B58435004310B480C4B42189A42DD
:10195800F6D30B4A02E0002342F8043B094B9A42B3
:10196800F9D3FFF7C3FF00F011F8FFF769FE7047DE
:1019780000000220241A0008000000200C000020AB
:101988000C000020C0000020FEE7000070B50D4EDE
:101998000D4CA41BA4100025A54209D10B4E0C4CDC
:1019A80000F020F8A41BA4100025A54205D170BDA5
:1019B80056F8253098470135EEE756F82530984710
:1019C8000135F2E71C1A00081C1A00081C1A000846
:1019D800201A000802440346934200D1704703F8D6
:1019E800011BF9E7F8B500BFF8BC08BC9E46704774
:0C19F800F8B500BFF8BC08BC9E46704764
:101A040000000000000000000102030406070809AA
:081A1400E4E7FF7F0100000080
:041A1C00AD01000810
:041A20008901000830
:0C1A240001000000100000000024F4008D
:040000050800194195
:00000001FF
